:020000040800F2
:10000000004B0020D1010008B1160008951100082E
:10001000AD160008F7050008B31C0008000000003A
:10002000000000000000000000000000D5170008DC
:100030001D0C000800000000391700080D1800080A
:10004000EB010008EB010008EB010008EB010008E0
:10005000EB010008EB010008210C0008A50C0008CA
:10006000D10C0008FD0C0008290D0008C909000882
:10007000050A0008410A0008EB010008850A00088B
:10008000C90A00080D0B0008EB010008EB0100088D
:10009000EB010008EB010008EB010008550D00081A
:1000A000EB010008EB010008EB010008EB01000880
:1000B000EB010008EB010008EB010008EB01000870
:1000C000EB010008EB010008EB010008EB01000860
:1000D000EB010008EB010008EB010008EB01000850
:1000E0004D0C0008EB010008EB01000800F002F8DD
:1000F00000F05EF80AA090E8000C82448344AAF164
:100100000107DA4501D100F053F8AFF2090EBAE861
:100110000F0013F0010F18BFFB1A43F0010318473B
:1001200000340000203400000A444FF0000C10F8A6
:10013000013B13F0070408BF10F8014B1D1108BF65
:1001400010F8015B641E05D010F8016B641E01F805
:10015000016BF9D113F0080F1EBF10F8014BAD1C55
:100160000C1B09D16D1E58BF01F801CBFAD505E073
:1001700014F8016B01F8016B6D1EF9D59142D6D3CD
:10018000704700000023002400250026103A28BFF5
:1001900078C1FBD8520728BF30C148BF0B607047F9
:1001A0001FB500F04AF800F0EDF81FBD10B510BD06
:1001B00000F021F91146FFF7F3FF02F01BFE00F0FB
:1001C0003FF903B4FFF7F2FF03BC00F043F900006E
:1001D0000948804709480047FEE7FEE7FEE7FEE7DB
:1001E000FEE7FEE7FEE7FEE7FEE7FEE70448054917
:1001F000054A064B7047000089180008ED0000080A
:1002000000450020004B0020004700200047002050
:100210000B4910B5A1F17C020A4CC2E93712372113
:1002200006E000EB104342F82130074B00FB03408F
:100230000B1EA1F10101F4DC10BD0120E8E7000074
:10024000782A0020E119D666CD0D0100032A40F27C
:10025000308010F0030C00F0158011F8013BBCF168
:10026000020F624498BF11F801CB00F8013B38BF80
:1002700011F8013BA2F1040298BF00F801CB38BF8E
:1002800000F8013B11F0030300F02580083AC0F0AC
:10029000088051F8043B083A51F804CBA0E8081054
:1002A000F5E7121D5CBF51F8043B40F8043BAFF387
:1002B0000080D20724BF11F8013B11F801CB48BFE1
:1002C00011F8012B24BF00F8013B00F801CB48BF17
:1002D00000F8012B704710B5203AC0F00B80B1E850
:1002E0001850203AA0E81850B1E81850A0E818506B
:1002F000BFF4F5AF5FEA027C24BFB1E81850A0E874
:10030000185044BF18C918C0BDE810405FEA827C8D
:1003100024BF51F8043B40F8043B08BF7047D207A4
:1003200028BF31F8023B48BF11F8012B28BF20F845
:10033000023B48BF00F8012B70474FF00002042930
:10034000C0F0128010F0030C00F03080CCF1040CEF
:10035000BCF1020F18BF00F8012BA8BF20F8022B38
:10036000A1EB0C0100F022B85FEAC17C24BF00F8C9
:10037000012B00F8012B48BF00F8012B7047704794
:100380007047704770B5064C7C44064D7D4403E0D1
:10039000206820448047241DAC42F9D170BD000084
:1003A000B4310000B43100004FF0000200B5134634
:1003B00094469646203922BFA0E80C50A0E80C5085
:1003C000B1F12001BFF4F7AF090728BFA0E80C5036
:1003D00048BF0CC05DF804EB890028BF40F8042B2F
:1003E00008BF704748BF20F8022B11F0804F18BF9C
:1003F00000F8012B7047754600F032F8AE46050054
:100400006946534620F00700854618B020B5FFF72F
:10041000EDFEBDE820404FF000064FF000074FF022
:1004200000084FF0000B21F00701AC46ACE8C00912
:10043000ACE8C009ACE8C009ACE8C0098D4670471B
:1004400010B50446AFF300802046BDE81040FFF72A
:10045000B8BE000001491820ABBEFEE7260002002E
:1004600000487047E02A0020704721B1826842F0BE
:100470000102826003E0826822F00102826070471C
:10048000014600208A6802F004020AB1012000E05F
:10049000002070470146C86C80B2704702460020B9
:1004A00013680B400BB1012000E0002070470146AB
:1004B00000208A6802F008020AB1012000E0002052
:1004C0007047000030B502460020002350680F4CF2
:1004D00020400D790C6844EA052420435060906860
:1004E0000B4C2040D1E902542C434D7944EA450499
:1004F00020439060D06A20F470000C7C641EE4B24B
:10050000234340EA0350D06230BD0000FFFEF0FFFD
:10051000FDF7F1FFF0B504460D4600200021092D3E
:1005200011DDE068A5F10A0606EB4607072606FA84
:1005300007F18843A5F10A0606EB460603FA06F121
:100540000843E0600CE0206905EB4507072606FA42
:1005500007F1884305EB450603FA06F108432061DD
:10056000072A0FDA606B561E06EB86071F2606FA6F
:1005700007F18843561E06EB860605FA06F1084386
:10058000606322E00D2A0FDA206BD61F06EB860788
:100590001F2606FA07F18843D61F06EB860605FAE2
:1005A00006F10843206310E0E06AA2F10D0606EBB5
:1005B00086071F2606FA07F18843A2F10D0606EB0F
:1005C000860605FA06F10843E062F0BD816841F055
:1005D00008018160704721B1826842F4A002826004
:1005E00003E0826822F4A00282607047816841F0D3
:1005F00004018160704700BFFEE7000010B50446AB
:100600000B48844209D10121480601F0C3F80021BA
:100610004FF0007001F0BEF808E00121880601F0FB
:10062000B9F800214FF0806001F0B4F810BD00006F
:100630000064004010B50021837A012202FA03F120
:100640003D4A126842F001023B4B1A603A4A1C32A2
:1006500012688A43384B1C331A60027BCAB9364A87
:100660000C3212688A43344B0C331A604288C388B8
:1006700042EA0343304A4032847A42F834300288F6
:10068000838842EA03432C4A4032847A02EBC40254
:100690005360027B012A19D1274A0C3212680A439F
:1006A000254B0C331A604288038842EA0343224AEE
:1006B0004032847A42F83430C288838842EA034365
:1006C0001D4A4032847A02EBC4025360C27A3AB9BE
:1006D000194A121D12688A43174B1B1D1A6006E047
:1006E000154A121D12680A43134B1B1D1A6002891A
:1006F00032B9114A143212688A430F4B14331A600C
:100700000289012A06D10C4A143212680A430A4BA4
:1007100014331A60427B012A06D1074A1C32126840
:100720000A43054B1C331A60034A126822F0010287
:10073000014B1A6010BD0000006600401AB1436909
:100740000B43436102E043698B434361704730B51B
:10075000024600200023146824F002041460146888
:1007600044F00104146000E05B1C546804F00104D0
:100770001CB94FF6FF74A342F6D1546804F001048B
:100780000CB900206CE08C79012C04D1146844F081
:100790008004146003E0146824F080041460CC79B1
:1007A000012C04D1146844F04004146003E0146880
:1007B00024F0400414600C7A012C04D1146844F035
:1007C0002004146003E0146824F0200414604C7AC0
:1007D000012C04D1146844F01004146003E0146880
:1007E00024F0100414608C7A012C04D1146844F0B5
:1007F0000804146003E0146824F008041460CC7A40
:10080000012C04D1146844F00404146003E014685B
:1008100024F0040414608C78A407CD7844EA0564BD
:100820000D7944EA05444D7944EA05540D886D1E5E
:100830002C43D461146824F001041460002300E008
:100840005B1C546804F001041CB14FF6FF74A34212
:10085000F6D1546804F001040CB1002000E001203E
:1008600030BD00218171C171017241728172C1720A
:100870008170C17003210171022141710121018048
:10088000704710B502460020936803F08063B3F10F
:10089000806F00D110E0936803F00063B3F1006F44
:1008A00001D1012008E0936803F08053B3F1805F29
:1008B00001D1022000E00420042874D002F5C073A6
:1008C00003EB00131B6803F0010402F5C07303EB94
:1008D00000131C600B7A7BB94B7A0C8843EA4453B3
:1008E00002F5C07404EB00142468234302F5C074BD
:1008F00004EB0014236010E00B7A4C6843EAC40355
:100900004C7A234302F5C07404EB0014246823439B
:1009100002F5C07404EB001423608B7A03F00F031C
:100920008B7202F5C07303EB00135B6823F00F04B6
:1009300002F5C07303EB00135C6002F5C07303EBB8
:1009400000135B688C7A234302F5C07404EB001437
:1009500063608B7B1C064B7B44EA03440B7B44EABD
:100960000323CC7A234302F5C07404EB0014A36084
:100970008B7C1C064B7C44EA03440B7C44EA032337
:10098000CC7B234302F5C07404EB0014E36002F552
:10099000C07303EB00131B6843F0010402F5C0733E
:1009A00003EB00131C6010BD00B500F0EDFB102838
:1009B00008DD00F0E9FB1038C2B2104600F00CFF71
:1009C000012000BD0020FCE710B5042000F0DAF89B
:1009D00038B1042000F0BCF80849A1F5B46001F07A
:1009E00069FE022000F0CEF830B1022000F0B0F82D
:1009F0000349024801F05EFE10BD0000C81100204E
:100A00006817002010B5402000F0BCF838B1402035
:100A100000F09EF80849A1F5B46001F0A1FE202085
:100A200000F0B0F830B1202000F092F803490248FD
:100A300001F096FE10BD0000C811002068170020CC
:100A400010B54FF4806000F09DF840B14FF4806025
:100A500000F07EF80949A1F5B46001F0DDFE4FF425
:100A6000007000F08FF838B14FF4007000F070F8AB
:100A70000349024801F0D0FE10BD0000C81100205B
:100A80006817002010B54FF4802000F07BF840B1CB
:100A90004FF4802000F05CF80949A1F5B46001F042
:100AA00013FF4FF4003000F06DF838B14FF4003010
:100AB00000F04EF80349024801F006FF10BD0000A7
:100AC000C81100206817002010B54FF4800000F016
:100AD00059F840B14FF4800000F03AF80949A1F507
:100AE000B46001F047FF4FF4001000F04BF838B14C
:100AF0004FF4001000F02CF80349024801F03AFFCF
:100B000010BD0000C81100206817002010B54FF07C
:100B1000806000F037F840B14FF0806000F018F8C6
:100B20000949A1F5B46001F07DFF4FF0007000F0BD
:100B300029F838B14FF0007000F00AF80349024874
:100B400001F070FF10BD0000C811002068170020E0
:100B500000F0805111B10349086001E0024948608A
:100B600070470000040402400000024021B1026806
:100B700042F00102026004E002684FF6FE731A4080
:100B80000260704701460020002201F0805313B13B
:100B9000054B1A6801E0054B1A6802EA01030BB124
:100BA000012000E0002070470004024000000240E5
:100BB0001AB103680B43036002E003688B430360D0
:100BC000704710B50022026847F6F0739A430C6A2A
:100BD0008B6823430C6923434C6923438C6923436B
:100BE000CC6923434C6A23438C6A23431A43026033
:100BF000CB6843600B6883604B68C36010BD416085
:100C000070470021016041608160C1600161416104
:100C10008161C16101624162816270477047000079
:100C200010B5012000F09EF9012807D101210548E7
:100C300000F099FA10B9162003490870012000F05D
:100C40008BF910BD000C01400A0C002010B54FF4C8
:100C5000806000F087F901280CD181020F4800F074
:100C600082FA10B919200E4908704FF4806000F024
:100C700073F911E04FF4006000F074F901280BD112
:100C8000C102064800F06FFA10B91A200449087032
:100C90004FF4006000F060F910BD0000000C01404E
:100CA0000A0C002010B5022000F05CF9012807D1E1
:100CB0000221054800F057FA10B9172003490870BF
:100CC000022000F049F910BD000C01400A0C002080
:100CD00010B5042000F046F9012807D10421054889
:100CE00000F041FA10B9182003490870042000F000
:100CF00033F910BD000C01400A0C002010B508208B
:100D000000F030F901280AD10821054800F02BFA3B
:100D100010B9112003490870082000F01DF910BD1A
:100D2000000801400A0C002010B5102000F01AF94C
:100D300001280AD11021054800F015FA10B9122037
:100D400003490870102000F007F910BD00080140A9
:100D50000A0C002010B5802000F004F901280BD106
:100D60008021164800F0FFF910B9152014490870C9
:100D7000202000F0F1F820E0402000F0F3F80128F6
:100D80000BD140210F4800F0EEF910B914200C49A6
:100D90000870402000F0E0F80FE0202000F0E2F8BA
:100DA00001280AD12021054800F0DDF910B91320EF
:100DB00003490870202000F0CFF810BD0008014062
:100DC0000A0C0020000C01401FB501210C2000F08E
:100DD000F1FC48208DF80F00B820ADF80C0003207E
:100DE0008DF80E0003A95A4800F032F940F647404A
:100DF000ADF80C0003A9574800F02AF90121084674
:100E000000F0D8FC0321002000F002F904210020AA
:100E100000F0FEF80521002000F0FAF80021012082
:100E200000F0F6F80121084600F0F2F80221012056
:100E300000F0EEF80721002000F0EAF8062101207A
:100E400000F0E6F80A21012000F0E2F80B21012071
:100E500000F0DEF840F6FF40019001208DF80A0016
:100E600000208DF808000C208DF8090001A800F082
:100E700085F84FF4E06000F055FC09208DF8000083
:100E800001208DF8030000208DF8010015208DF859
:100E90000200684600F00EFC0A208DF800000120D8
:100EA0008DF8030000208DF8010015208DF8020058
:100EB000684600F0FFFB06208DF8000001208DF849
:100EC000030000208DF8010015208DF8020068460F
:100ED00000F0F0FB07208DF8000001208DF80300E2
:100EE00000208DF8010015208DF80200684600F002
:100EF000E1FB08208DF8000001208DF803000020A0
:100F00008DF8010015208DF80200684600F0D2FB34
:100F100017208DF8000001208DF8030000208DF8C7
:100F2000010015208DF80200684600F0C3FB282060
:100F30008DF8000001208DF8030000208DF80100DD
:100F400015208DF80200684600F0B4FB1FBD0000BC
:100F500000080140000C0140014908607047000092
:100F60001404014001460020034A12680A400AB1F5
:100F7000012000E0002070471404014000212349B3
:100F80008279002A3AD00A46126803689A430B46CF
:100F90001A600A1D126803689A430B1D1A600279D1
:100FA00011440A6803681A430A60184A0832126832
:100FB00003689A43154B08331A601A1D12680368B8
:100FC0009A43124B0C331A604279102A0ED11A1F21
:100FD000126803681A430D4B08331A601A1D126811
:100FE00003681A43094B0C331A600DE00749427934
:100FF00011440A6803681A430A6005E00279114443
:101000000A6803689A430A607047000000040140C0
:1010100030B500228B071C0F0F2303FA04F20B4B91
:101020008C1053F824309343084C8D1044F825302D
:1010300023468C1053F824308C07240F00FA04F454
:101040002343024C8D1044F8253030BD0800014088
:101050002DE9F0410246002500260020002300244F
:10106000002791F803C00CF00F0591F803C00CF0B5
:10107000100CBCF1000F03D091F802C04CEA05053A
:1010800091F800C0BCF1000F31D0146800202BE0B3
:101090004FF0010C0CFA00F3B1F800C00CEA0306A3
:1010A0009E4220D183004FF00F0C0CFA03F7BC4393
:1010B00005FA03FC4CEA040491F803C0BCF1280FC4
:1010C00006D14FF0010C0CFA00FCC2F814C00AE083
:1010D00091F803C0BCF1480F05D14FF0010C0CFA98
:1010E00000FCC2F810C0401C0828D1D31460B1F82D
:1010F00000C0BCF1FF0F34DD546800202EE000F189
:10110000080C4FF0010808FA0CF3B1F800C00CEA23
:1011100003069E4221D183004FF00F0C0CFA03F717
:10112000BC4305FA03FC4CEA040491F803C0BCF18B
:10113000280F05D100F1080C08FA0CF8C2F8148049
:1011400091F803C0BCF1480F07D100F1080C4FF033
:10115000010808FA0CF8C2F81080401C0828CED309
:101160005460BDE8F0810246002093680B400BB14B
:10117000012000E0002070474FF6FF71018002213E
:1011800081700421C17070470148007870470000E9
:101190000A0C002000BFFEE710B5044601F096FEE1
:1011A00008480470007830B9074808490A88028066
:1011B0008978817005E0044805490A8802808978A9
:1011C000817010BDF60B0020F30B0020010C0020F5
:1011D000F033000830B502462C480078012806D1CB
:1011E0002B482C4B1C8804809B78837005E0284892
:1011F000294B1C8804809B78837000200BE000F54D
:10120000C87303EB43030B44214C25881D80A4784D
:101210009C70431C98B24028F1DB22B1012A12D005
:10122000022A30D11FE0002009E000EB40030B440C
:101230001A4C25881D80A4789C70431C98B2B0F588
:10124000C87FF2DB20E0002009E000EB40030B4404
:101250000F4C25881D80A4789C70431C98B2B0F573
:10126000C87FF2DB10E0002009E000EB40030B44F4
:10127000074C25881D80A4789C70431C98B2B0F55B
:10128000C87FF2DB00E000BF00BF30BDF60B0020DE
:10129000F30B0020F0330008010C0020F3330008AA
:1012A00070B505460C4625B1012D11D0022D7AD11D
:1012B00069E0002009E000EB400121443B4A13882B
:1012C0000B8092788A70411C88B2FF28F3DD6BE0B6
:1012D00001F0B0FC6421B0FBF1F201FB120020B977
:1012E00033480078401E32490870314800780028A1
:1012F00003DD00202F49087008E02D48007828B948
:1013000004202B49087000202A490870002037E08B
:101310002749097800EBC101FF290FDC244909782E
:1013200000EBC101244A515C41B100EB4001214472
:10133000224A13880B8092788A701FE01C49097832
:1013400000EBC101FF2911DD1949097800EBC1014A
:10135000A1F58071184A515C41B100EB4001214474
:10136000164A13880B8092788A7007E000EB4001E0
:1013700021440E4A13880B8092788A70411C88B2EF
:10138000FF28C5DD10E0002009E000EB400121440A
:101390000A4A13880B8092788A70411C88B2FF2811
:1013A000F3DD01E0FFE700BF00BF70BDF3330008CD
:1013B000060C0020F00B0020F9330008F30B00208E
:1013C00070B506460D4646480078012806D14548C6
:1013D00045490A8802808978817005E0414843497F
:1013E0000A8802808978817026B1012E12D0022EDF
:1013F00072D12BE0002009E000EB400129443C4A77
:1014000013880B8092788A70411C88B2B0F5897F6E
:10141000F2DB62E0002015E03649095C41B100EBE7
:10142000400129442F4A13880B8092788A7007E084
:1014300000EB400129442E4A13880B8092788A7071
:10144000411C88B2B0F5897FE6DB00BFFFF79CFE48
:101450000B281CD2DFE800F00607090B0D0F111353
:101460001517190014E0244C12E0244C10E0244C11
:101470000EE0244C0CE0244C0AE0244C08E0244C00
:1014800006E0244C04E0244C02E0244C00E000BFC1
:1014900000BFFFF779FE0B281DDAFFF775FE002865
:1014A00019DD002014E0215C41B100EB400129442A
:1014B0000C4A13880B8092788A7007E000EB400199
:1014C00029440B4A13880B8092788A70411C88B299
:1014D000B0F5897FE7DB00BF00BF00BF70BD000033
:1014E000F60B0020070C0020F6330008FE0B00204E
:1014F000F33300083C0000204E0100205E02002073
:101500006E0300207E0400208E0500209E06002031
:10151000AE070020BE080020CE090020DE0A002011
:1015200070B55848007800F0010090B9554801F0B6
:10153000C7FB70B1544D5548286002234FF4C26276
:101540005349281D01F0AAFB051F00BF4D48AFF30A
:1015500000804D4C20680168204688474D4800783F
:1015600050B900F0CBFD90F8211029B1002000F017
:1015700033F90120474908704648007801280BD10B
:1015800000F0BCFD90F8211031B1FFF70DFA0128F1
:1015900002D102203F4908703E48007802280BD152
:1015A00000F0ACFD0546012685F8206000BF00F084
:1015B000A5FD054600F040FD374936480078FFF7A5
:1015C0006FFE364933480078FFF7FAFE3449314858
:1015D0000078FFF7FFFD01F02DFB3221B0FBF1F2A7
:1015E00001FB120048B901F0D7FD002849D04FF4A3
:1015F0008071294801F03AFC43E001F01BFB3221E5
:10160000B0FBF1F201FB12000A2808D101F0C4FD81
:1016100030B34FF48971214801F04CFC31E001F006
:1016200009FB3221B0FBF1F201FB1200142807D1B3
:1016300001F0B2FDA0B1E821194801F02FFC20E033
:1016400001F0F8FA3221B0FBF1F201FB12001E2882
:1016500007D101F0A1FD18B1A821124801F012FC38
:101660000FE001F0E7FA3221B0FBF1F201FB1200CA
:10167000282806D101F090FD18B140210A4801F058
:10168000ADFD70BD180C0020D83800201C350008B6
:10169000D3320008F20B002068170020681A0020DF
:1016A0009E1D0020562000204E22002000BFFEE795
:1016B0007047000070B5002100230F22C47804B3E6
:1016C000154C246804F4E064C4F5E064210AC1F117
:1016D0000403CA40447804FA03F184781440214397
:1016E00009010E4C0678A155047804F01F05012469
:1016F000AC4005786D11AD0005F1E025C5F800415D
:1017000009E0047804F01F050124AC40044D06787C
:10171000761145F8264070BD0CED00E000E400E0D5
:1017200080E100E002490143024A11607047000075
:101730000000FA050CED00E07047000001460020B3
:10174000034A506820F4404008435060704700004E
:101750000010024029B1064A52690243044B5A6103
:1017600004E0034A52698243014B5A61704700000A
:101770000010024029B1064AD2690243044BDA61E3
:1017800004E0034AD2698243014BDA6170470000EA
:101790000010024029B1064A12690243044B1A6143
:1017A00004E0034A12698243014B1A61704700004A
:1017B0000010024029B1064A92690243044B9A6123
:1017C00004E0034A92698243014B9A61704700002A
:1017D0000010024070470000014908707047000087
:1017E0000A0C0020042808D14FF0E021096941F0DB
:1017F00004014FF0E022116107E04FF0E021096998
:1018000021F004014FF0E0221161704770B5012012
:1018100080F3108800BF00BF01F026FA054600687B
:10182000401C286000BF1448007800F0010090B907
:10183000114801F045FA70B1104D1148286002239B
:101840004FF4C2620F49281D01F028FA051F00BF9E
:101850000948AFF30080094C20680168204688479A
:10186000FFF75EFE00F05AFB054600F045FB002046
:1018700080F3108800BF70BD180C0020D8380020FD
:101880001C350008D332000810B51348006840F03A
:1018900001001149086008464068104908400E4997
:1018A0004860084600680E4908400B490860084631
:1018B000006820F4802008600846406820F4FE009C
:1018C00048604FF41F00886001F040F94FF000605D
:1018D0000449086010BD0000001002400000FFF83D
:1018E000FFFFF6FE08ED00E021B1028842F00102A0
:1018F000028004E002884FF6FE731A4002807047AF
:1019000031B1B0F8442042F40042A0F8442005E090
:10191000B0F84420C2F30E02A0F8442070471AB178
:1019200083890B43838102E083898B4383817047E2
:1019300070B5002400220023058C4FF6FE7635405A
:101940000584028C8388048B4FF68F752C40B51E5E
:101950002C400D882C43751E2A400D892A434D8842
:101960002A43144DA8420BD0134DA84208D0134D62
:10197000A84205D0124DA84202D0124DA84213D160
:101980004FF6F7752A404D892A434FF6FB752A40DA
:101990008D882A434FF6FF652B404FF6FF552B40AD
:1019A0008D892B43CD892B4383800483CD88858605
:1019B000028470BD002C0140003401400040014011
:1019C00000440140004801400A460021018B4FF6C7
:1019D000F7731940114301837047000070B500246C
:1019E00000220023058C4FF6EF7635400584028CEB
:1019F0008388048B48F6FF752C404FF6FF452C403A
:101A00000D884FF6FF7606EA05252C434FF6DF7565
:101A10002A400D8906EA05152A434D8806EA051570
:101A20002A43154DA84202D0144DA8421DD14FF6AD
:101A30007F752A404D894FF6FF7606EA05152A4341
:101A40004FF6BF752A408D8806EA05152A434FF6E2
:101A5000FF352B404FF2FF752B408D8906EA850537
:101A60002B43CD8906EA85052B4383800483CD88EB
:101A70000587028470BD0000002C01400034014045
:101A80000A460021018B4FF2FF7319404FF6FF7396
:101A900003EA0223194301837047000070B5002454
:101AA00000220023058C4FF6FF6635400584028C2A
:101AB0008388848B4FF68F752C404FF6FC752C4035
:101AC0000D882C434FF6FF552A400D894FF6FF76BF
:101AD00006EA05252A434D8806EA05252A43154DC1
:101AE000A84202D0144DA8421DD14FF2FF752A40E2
:101AF0004D894FF6FF7606EA05252A434FF6FF3556
:101B00002A408D8806EA05252A434EF6FF752B40AC
:101B10004DF6FF752B408D8906EA05152B43CD89BF
:101B200006EA05152B4383808483CD88858702844C
:101B300070BD0000002C0140003401400A46002125
:101B4000818B4FF6F7731940114381837047000072
:101B500070B5002200230024058C4EF6FF76354038
:101B60000584038C8488828B48F6FF752A404FF6E3
:101B7000FF452A400D884FF6FF7606EA05252A43E1
:101B80004DF6FF752B400D8906EA05352B434D8830
:101B900006EA05352B430B4DA84202D00A4DA84258
:101BA00008D14BF6FF752C408D894FF6FF7606EA7B
:101BB00085152C4384808283CD88A0F8405003840F
:101BC00070BD0000002C0140003401400A46002195
:101BD000818B4FF2FF7319404FF6FF7303EA022324
:101BE0001943818370470021018041808180C18039
:101BF000018141818181C1817047000000220288FA
:101C00001D4B98420ED01D4B98420BD0B0F1804F27
:101C100008D01B4B984205D01A4B984202D01A4B61
:101C2000984204D14FF68F731A404B881A43174BD2
:101C3000984207D0164B984204D04FF6FF431A4003
:101C4000CB881A4302808B8883850B8803850A4BD7
:101C500098420BD0094B984208D00E4B984205D0C1
:101C60000D4B984202D00D4B984201D10B7A03865E
:101C70000123838270470000002C014000340140A2
:101C80000004004000080040000C0040001000402C
:101C90000014004000400140004401400048014061
:101CA0004FF6FF71818000210180C1804180017267
:101CB000704700BFFEE7000010B501210648FEF79F
:101CC0008AFC00BF02210448FEF7E8FB0028F9D097
:101CD0000148FEF7DFFB10BD0024014000B587B0CE
:101CE00001214802FFF766FD01210420FFF762FD94
:101CF0004FF40040FFF722FD00208DF81B0010205C
:101D0000ADF8180003208DF81A0006A91948FFF74E
:101D10009FF90523012204211748FEF7FBFB002051
:101D2000019004904FF46020039000208DF809008A
:101D30008DF8080001208DF8140001A90E48FEF767
:101D4000C1FB01210C48FEF790FB0B48FEF73EFC5F
:101D500000BF0948FEF7ABFB0128FAD00648FEF7A2
:101D600045FC00BF0448FEF78BFB0128FAD007B002
:101D700000BD0000000801400024014010B5FFF73D
:101D8000ADFFFFF799FF0349088008460088FEF77A
:101D90003FFA10BD140000202DE9F04704460E461E
:101DA00017469846DDF8209094F8690D00EB400145
:101DB00001EB801104F5A16000EB81052E6000208D
:101DC00085F8090185F808916F604A46414605F19A
:101DD0000800FEF73BFA94F8691D481CC11700EB98
:101DE0005171C910A0EBC10184F8691DBDE8F087ED
:101DF00070B586B0054695F8680D00EB400101EB23
:101E0000801105F5A16000EB81046068019000205D
:101E10008DF80C008DF80D0094F8080194F8091164
:101E2000401A082817DD08208DF80E0094F80911D3
:101E300004F1080008440168CDF80F104068CDF89F
:101E4000130094F80901083084F8090101A92068F9
:101E5000FEF717FD26E094F8080194F80911401ADE
:101E6000C6B28DF80E6094F8092104F1080011182B
:101E700032460DF10F00FEF7E9F994F809013044FC
:101E800084F8090101A92068FEF7FBFC95F8681D9C
:101E9000481CC11700EB5171C910A0EBC10185F8B6
:101EA000681D00BF06B070BD014691F8680D00EBDB
:101EB000400303EB801301F5A16000EB830291F86E
:101EC000690D91F8683D984207D192F8090192F89E
:101ED0000831984201D1012070470020FCE710B57D
:101EE000044600F0FDFE002084F8680D84F8690DBA
:101EF000032084F86A0D10BD70B5044694F96A5D3C
:101F000004E02046FFF774FF681E45B2002D04DD93
:101F10002046FFF7C9FF0028F3D070BD10B50C486C
:101F2000007800F0010080B9094800F0C9FE60B1F6
:101F3000084C02234FF421720749204600F0AEFE00
:101F4000044600BF0248AFF30080024810BD000005
:101F5000100C0020402B0020711F0008024601F0E9
:101F6000010000EB401303EBC01002EB8000704750
:101F7000002180F8801280F88112704770B5044605
:101F80000D4614222946201DFEF7A5F900F052FE49
:101F9000A06170BD38B504460D4629462046FFF7BE
:101FA000EDFF04F10F0000900121684600F04EF9AA
:101FB00084F820000121684600F048F984F82100E7
:101FC00038BD00002DE9F04104460D4616460020BC
:101FD00084F8200084F82100A66265621248007827
:101FE00000F00100B0B9104800F06AFE90B1DFF8CF
:101FF0003C800F48C8F8000002234FF4C2620D492C
:1020000008F1040000F04AFEA0F1040800BF0648F1
:10201000AFF30080054F23463846D4E9091200F09B
:102020008BF8BDE8F0810000180C0020D8380020A3
:102030001C350008D332000870B5054600F0FAFDE3
:102040003221B0FBF1F201FB1200052815D10B483B
:10205000007800F0010060B9084800F031FE40B19E
:1020600007480849016000BF074901600348AFF312
:102070000080034C204600F009F870BD140C0020CD
:10208000AC3800200435000810350008FEB50446C1
:102090000020029002A8019094F82010012201A8CB
:1020A00000F0CAF894F82110012201A800F0C4F849
:1020B0000F48007800F0010080B90D4800F000FEE4
:1020C00060B10C4E02234FF421720B49304600F0F0
:1020D000E5FD064600BF0648AFF30080054D012030
:1020E000009002AB2846D4E90912FFF755FEFEBD69
:1020F000100C0020402B0020711F000810B50A486A
:10210000007800F0010060B9074800F0D9FD40B147
:1021100006480749016000BF064901600248AFF365
:102120000080024810BD0000140C0020AC380020D4
:1021300004350008103500082DE9F04104460D462D
:1021400016461F464FF000080848854201D14FF05F
:10215000010808EB481101EB8812211D01EB021068
:102160003A46314601F046F8BDE8F081006800408B
:102170002DE9F04106462D48007800F0010080B9B5
:102180002A4800F09DFD60B1294C02234FF42172D2
:102190002849204600F082FD044600BF2348AFF3E3
:1021A0000080234F00BF00243BE029E02146384651
:1021B000FFF7D4FE90F8801201EB810100EB810261
:1021C00090F88032591CCB1701EBD3635B11A1EB64
:1021D000431380F8803200BF904604EB441202EBB8
:1021E0008413321D02EB0310D8F8001001F036F80A
:1021F000054625B1286801680A684146904700BF36
:1022000021463846FFF7AAFE054695F8800295F864
:102210008112884201D1012000E000200028C5D0B1
:10222000641C022CC1DBBDE8F0810000100C002012
:10223000402B0020711F000807B59DF8043001688D
:102240000B7012B10168491C01600EBD08B5024651
:102250000020009010680078009011B11068401CB8
:1022600010609DF8000008BD2DE9F84305460E46B4
:10227000174628480068002849D1012025490860F0
:1022800025480560254806602548076025480090D8
:1022900000F53464022300226946104600F0F6F986
:1022A0000098201A302190FBF1F01D4909688842FE
:1022B00002D91B48006804E00098201A302190FBE6
:1022C000F1F080464346164A69461448DFF848C094
:1022D000DCF800C0E0470098A0420AD20098201A1B
:1022E000302190FBF1F8434600226946104600F089
:1022F000CDF94FF4B4610C48FEF781FC0121880749
:10230000FFF7F2FA01210848FEF730FC00BFBDE8F4
:10231000F88300001C000020300000203400002062
:1023200038000020280C0020080002402DE9F84366
:1023300005460E4617462A48006800284DD1012060
:102340002749086027480560274806602748076036
:102350002748009000F534640223002269461046A5
:1023600000F094F90098201A302190FBF1F01F49F9
:102370000968884202D91D48006804E00098201AC4
:10238000302190FBF1F080464346184A69461648D2
:10239000DFF850C0DCF800C0E0470098A0420AD245
:1023A0000098201A302190FBF1F84346002269463C
:1023B000104600F06BF94FF4B4610E48FEF71FFCB5
:1023C00001210D48FFF790FA01210B48FFF798FA19
:1023D00001210848FEF7CAFB00BFBDE8F8830000F2
:1023E00028000020300000203400002038000020A9
:1023F000280C00201C000240002C01402DE9F8436D
:1024000005460E46174628480068002849D1012095
:10241000254908602548056025480660254807606D
:102420002548009000F534640223002269461046D6
:1024300000F02CF90098201A302190FBF1F01D4992
:102440000968884202D91B48006804E00098201AF5
:10245000302190FBF1F080464346164A6946144805
:10246000DFF848C0DCF800C0E0470098A0420AD27C
:102470000098201A302190FBF1F84346002269466B
:10248000104600F003F94FF4B4610C48FEF7B7FBB7
:1024900001218807FFF728FA01210848FEF766FBAB
:1024A00000BFBDE8F88300002C00002030000020B1
:1024B0003400002038000020280C00205800024082
:1024C0002DE9F84305460E461746284800680028BF
:1024D00049D1012025490860254805602548066046
:1024E000254807602548009000F534640223002247
:1024F0006946104600F0CAF80098201A302190FB77
:10250000F1F01D490968884202D91B48006804E0BF
:102510000098201A302190FBF1F080464346164A7D
:1025200069461448DFF848C0DCF800C0E04700986E
:10253000A0420AD20098201A302190FBF1F84346BD
:1025400000226946104600F0A1F84FF4B4610C482F
:10255000FEF755FB01210B48FFF7C6F9012108489A
:10256000FEF704FB00BFBDE8F88300002000002058
:10257000300000203400002038000020280C00200B
:102580006C000240000400402DE9F84305460E4669
:10259000174628480068002849D1012025490860CD
:1025A00025480560254806602548076025480090B5
:1025B00000F53464022300226946104600F066F8F4
:1025C0000098201A302190FBF1F01D4909688842DB
:1025D00002D91B48006804E00098201A302190FBC3
:1025E000F1F080464346164A69461448DFF848C071
:1025F000DCF800C0E0470098A0420AD20098201AF8
:10260000302190FBF1F8434600226946104600F065
:102610003DF84FF4B4610C48FEF7F1FA0121880748
:10262000FFF762F901210848FEF7A0FA00BFBDE8F4
:10263000F883000018000020300000203400002043
:1026400038000020280C0020800002402DE9F047CF
:1026500004460D4616461F46D4F80080D5F8009073
:102660003068C01B306007E0494609F13009404638
:1026700008F1030800F02CFA381EA7F10107F3D186
:10268000C4F80080C5F80090BDE8F0872DE9F0415E
:1026900006460C4617461D4605EB4502110120680B
:1026A000FDF74BFE05EB4501206800EB01102060B3
:1026B000BDE8F08173B50C462448006860B900217C
:1026C0004FF08040FFF710F900212148FEF74EFA45
:1026D00000202049086038E01F48006870B9009861
:1026E000201A302190FBF1F52B4600226946104656
:1026F000FFF7CCFF00201549086026E00098201A5B
:10270000302190FBF1F014490968884202D912483F
:10271000006804E00098201A302190FBF1F0054693
:102720002B460D4A69460D48084E3668B04700985A
:10273000A0420AD20098201A302190FBF1F52B46D6
:10274000002269461046FFF7A1FF7CBD3000002043
:10275000080002401C000020380000203400002047
:1027600073B50C462648006878B900212548FFF764
:10277000BBF801212348FFF7C3F800212248FEF7E8
:10278000F5F900202149086038E02148006870B957
:102790000098201A302190FBF1F52B460022694663
:1027A0001046FFF773FF00201549086026E00098E7
:1027B000201A302190FBF1F015490968884202D9AE
:1027C0001348006804E00098201A302190FBF1F0D3
:1027D00005462B460E4A69460E48094E3668B047F4
:1027E0000098A0420AD20098201A302190FBF1F5FF
:1027F0002B46002269461046FFF748FF7CBD0000CB
:1028000030000020002C01401C0002402800002065
:10281000380000203400002073B50C4624480068BE
:1028200058B900212348FFF75FF800212248FEF73E
:102830009DF900202149086038E02148006870B9FE
:102840000098201A302190FBF1F52B4600226946B2
:102850001046FFF71BFF00201549086026E000988E
:10286000201A302190FBF1F015490968884202D9FD
:102870001348006804E00098201A302190FBF1F022
:1028800005462B460E4A69460E48094E3668B04743
:102890000098A0420AD20098201A302190FBF1F54E
:1028A0002B46002269461046FFF7F0FE7CBD000073
:1028B00030000020000400403000024024000020CE
:1028C000380000203400002073B50C46244800680E
:1028D00060B900214FF08040FFF706F80021214841
:1028E000FEF744F900202049086038E01F480068DE
:1028F00070B90098201A302190FBF1F52B46002288
:1029000069461046FFF7C2FE00201549086026E020
:102910000098201A302190FBF1F014490968884290
:1029200002D91248006804E00098201A302190FB78
:10293000F1F005462B460D4A69460D48084E3668AB
:10294000B0470098A0420AD20098201A302190FB8C
:10295000F1F52B46002269461046FFF797FE7CBD35
:1029600030000020580002402C00002038000020D9
:102970003400002073B50C462448006858B9002183
:102980002348FEF7B1FF00212248FEF7EFF80020B0
:102990002149086038E02148006870B90098201A81
:1029A000302190FBF1F52B46002269461046FFF7D7
:1029B0006DFE00201549086026E00098201A30219D
:1029C00090FBF1F015490968884202D91348006864
:1029D00004E00098201A302190FBF1F005462B46C8
:1029E0000E4A69460E48094E3668B0470098A04224
:1029F0000AD20098201A302190FBF1F52B460022D4
:102A000069461046FFF742FE7CBD00003000002002
:102A1000000400406C00024020000020380000202C
:102A20003400002073B50C462448006860B90021CA
:102A30004FF08040FEF758FF00212148FEF796F83E
:102A400000202049086038E01F48006870B90098ED
:102A5000201A302190FBF1F52B46002269461046E2
:102A6000FFF714FE00201549086026E00098201AA0
:102A7000302190FBF1F014490968884202D91248CC
:102A8000006804E00098201A302190FBF1F0054620
:102A90002B460D4A69460D48084E3668B0470098E7
:102AA000A0420AD20098201A302190FBF1F52B4663
:102AB000002269461046FFF7E9FD7CBD300000208A
:102AC0008000024018000020380000203400002060
:102AD0002DE9F04705460E46287800F031F880468B
:102AE000687800F02DF88146A87800F029F8824631
:102AF0008027002420E008EA070008B1152100E043
:102B0000092106F1100000EB4400018009EA0700EA
:102B100008B1152000E0092006EB440108800AEA0C
:102B2000070008B1152100E0092106F1200000EBA3
:102B3000440001807F10641C082CDCDBBDE8F087BA
:102B400001460148405C7047F032000810B500F0C3
:102B500001F810BD0CB500200190009033480068CA
:102B600040F480303149086000BF3048006800F40C
:102B7000003000900198401C0190009818B901980D
:102B8000B0F5A06FF1D12948006800F4003010B111
:102B90000120009001E0002000900098012843D11E
:102BA0002348006840F0100021490860084600688A
:102BB00020F0030008600846006840F0020008604A
:102BC0001A48406819494860084640684860084605
:102BD000406840F4806048600846406820F47C10FB
:102BE00048600846406840F4E810486008460068BD
:102BF00040F08070086000BF0C48006800F0007072
:102C00000028F9D00948406820F0030007494860CF
:102C10000846406840F00200486000BF0348406832
:102C200000F00C000828F9D10CBD00000010024093
:102C30000020024010B50A48007800F0010060B999
:102C4000074800F03DF840B106480021016001212D
:102C5000416000BF0248AFF300800248006810BD29
:102C60001C0C0020200C002010B50A48007800F051
:102C7000010060B9074800F023F840B10648002180
:102C800001600121416000BF0248AFF300800248AB
:102C900010BD00001C0C0020200C00202DE9F0418C
:102CA0001C4617460E00804607D0054602E028461F
:102CB000B0473D442046641EF9D24046BDE8F0814D
:102CC000016809B100207047012101600846704782
:102CD00010B5FFF713FA0149086010BD0C0C002075
:102CE0002DE9F0418AB00024002503260627A046DE
:102CF00001210420FEF75EFD01214806FEF73AFDA2
:102D000001214806FEF746FD00214FF00070FEF756
:102D100041FD4FF48050ADF8240003208DF82600CB
:102D200018208DF8270009A93048FEF791F94FF4D3
:102D30000060ADF8240048208DF8270009A92B4831
:102D4000FEF786F92A48FDF759FC06A8FDF789FD2C
:102D500000208DF81E0001208DF81F0000208DF846
:102D600020008DF821008DF822008DF823008DF8C9
:102D70001A808DF81B408DF81C608DF81D50ADF841
:102D8000187006A91A48FDF7E2FC00208DF8120021
:102D90008DF8130001208DF814000020ADF8080014
:102DA000ADF80A00ADF80C00ADF80E00ADF810005B
:102DB00001208DF8150002A8FDF73CFC012202213C
:102DC0000B48FDF7BBFC14208DF8040001208DF8A2
:102DD000050003208DF8060001208DF8070001A8EA
:102DE000FEF768FC00200AB0BDE8F0810008014051
:102DF000006400400124FFF737FF4460FFF734FF11
:102E00000646A01FFEF7EEFC164800684FF4FA5184
:102E1000B0FBF1F000FB04F54FF0E020006940F05A
:102E200002004FF0E021086108464561006940F06A
:102E30000100086100BF00BFFFF770F80446FFF70C
:102E40004EF8FFF75BF904469C220749FFF7BAF8F2
:102E5000FEF794FFFDF7B8FF0020FEF79DF900BFD5
:102E6000FEE70000000000200064004070B504464A
:102E70000D462A4621460248FFF786FB70BD00003A
:102E80004D26000870B504460D462A4621460248E4
:102E9000FFF7EAF970BD00004D26000870B5044642
:102EA0000D462A4621460248FFF70AFB70BD000086
:102EB0004D26000870B504460D462A4621460248B4
:102EC000FFF734FA70BD00004D26000800B595B03C
:102ED00001210846FEF74EFC01210220FEF74AFCC4
:102EE00001210420FEF766FC01210820FEF762FCA8
:102EF0000121C802FEF75EFC01210846FEF72AFC0C
:102F000014A8FEF739F940F24710ADF8500003203D
:102F10008DF8520018208DF8530014A99548FEF73B
:102F200097F80220ADF8500014A99348FEF790F8E6
:102F300011A8FEF7B5FE914800689149B0FBF1F089
:102F4000401E80B2ADF844000020ADF846001D20C0
:102F5000ADF848000020ADF84A0011A94FF08040BC
:102F6000FEF74CFE11A98748FEF748FE834800682B
:102F70008349B0FBF1F0401E80B2ADF8440011A9C6
:102F80008148FEF73BFE0DA8FEF72DFE6020ADF850
:102F900034000120ADF836000020ADF83A00ADF85D
:102FA0003C000DA94FF08040FEF718FD0821C8062F
:102FB000FEF766FD0DA94FF08040FEF76FFD08217A
:102FC000C806FEF7BBFD0DA96E48FEF7B1FC08214F
:102FD0006C48FEF7F9FC0DA96A48FEF7B9FD082117
:102FE0006848FEF7F3FD0DA96748FEF7A1FC08212C
:102FF0006548FEF7E9FC0DA94FF08040FEF798FC0C
:103000000821C806FEF7E0FC02A8FDF7FAFD5F48BC
:1030100002905F480390102004904FF4B460059034
:1030200000200690802007904000089080000990C2
:1030300020200A9000020B9000200C9002A9554815
:10304000FDF7BFFD5148001D029002A95148783894
:10305000FDF7B7FD4B483430029002A94D481438B3
:10306000FDF7AFFD47484030029002A9494850386B
:10307000FDF7A7FD44483430029002A94548643862
:10308000FDF79FFD4148001F029002A941482838E2
:10309000FDF797FD012291020805FEF740FC012291
:1030A000D102C804FEF73BFC012251023548FEF76D
:1030B00036FC012211033348FEF731FC0122510294
:1030C0003148FEF72CFC012251024805FEF727FC8F
:1030D0000B208DF8040003208DF805008DF8060004
:1030E00001208DF8070001A8FEF7E4FA10208DF802
:1030F000040001A8FEF7DEFA0D208DF8040001A8F7
:10310000FEF7D8FA0C208DF8040001A8FEF7D2FAD9
:103110000F208DF8040001A8FEF7CCFA11208DF8DD
:10312000040001A8FEF7C6FA012206211948FDF79E
:103130003FFD0122062117487838FDF739FD0122AD
:10314000062114481438FDF733FD012206211148E9
:103150005038FDF72DFD012206210E486438FDF799
:1031600027FD012206210B482838FDF721FD15B067
:1031700000BD000000080140000C014000000020DC
:1031800000366E0100040040002C01403800004071
:10319000280C0020800002400A48006880B90A48D4
:1031A000006868B90948006850B90948006838B92A
:1031B0000848006820B90848006808B9012070472D
:1031C0000020FCE71C000020200000201800002048
:1031D00028000020240000202C00002070B50446A8
:1031E0000D462A4621460248FFF708F970BD000047
:1031F0004D26000870B503460C4693F80C0681284E
:1032000002DB4FF0FF3070BD8120B4FBF0F500FB16
:10321000154106E0481C812590FBF5F605FB1600DC
:10322000C1B201EB410003EB8000007A0028F1D12C
:10323000012001EB410503EB8505287201EB4100FC
:1032400003EB8000426001EB410043F8204093F81B
:103250000C06401C83F80C060020D4E72DE9F04151
:10326000024613460C468127B4FBF7FC07FB1C40C3
:1032700000EB400753F82770A74201D107461BE037
:10328000064600BF471C4FF0810C97FBFCF80CFB77
:103290001877F8B200EB400753F82770A74201D126
:1032A000074609E000EB400703EB87073F7A0FB1C1
:1032B000B042E7D14FF0FF373D46681C10B90020FF
:1032C000BDE8F081E8B200EB400002EB8000001D99
:1032D000F6E7002106E0002201EB410300EB830347
:1032E0001A72491C8129F6DB002180F80C16704700
:1032F00000000000000000000000000001010101CA
:103300000101010102020202020203030303040499
:103310000404050505050606060707070808080949
:1033200009090A0A0B0B0B0C0C0D0D0E0E0F0F10DA
:10333000101111121213131414151516171718184B
:10334000191A1A1B1C1C1D1E1E1F2020212223239C
:10335000242526262728292A2A2B2C2D2E2F2F30CC
:10336000313233343536373838393A3B3C3D3E3FDD
:103370004041424344454647494A4B4C4D4E4F50CD
:1033800051525455565758595B5C5D5E5F6162639C
:1033900064666768696B6C6D6F707173747577784C
:1033A000797B7C7E7F808283858688898B8C8E8FDB
:1033B0009192949597989A9B9D9EA0A2A3A5A6A84A
:1033C000AAABADAFB0B2B4B5B7B9BABCBEC0C1C399
:1033D000C5C7C8CACCCECFD1D3D5D7D9DADCDEE0C9
:1033E000E2E4E6E8E9EBEDEFF1F3F5F7F9FBFDFFD9
:1033F0000000AA00000000006400000001010000BD
:1034000000000100000000010000010100000101B6
:1034100000000001010101000000000001010000A6
:103420000000010000000001000001010000010196
:103430000000000101010100000000000101000086
:103440000000010000000001000001010000010176
:103450000000000101010100000000000101000066
:103460000000010000000001000001010000010156
:103470000000000101010100000000000101000046
:103480000000010000000001000001010000010136
:103490000000000101010100000000000101000026
:1034A0000000010000000001000001010000010116
:1034B0000000000101010100000000000101000006
:1034C00000000100000000010000010100000101F6
:1034D00000000001010101000000000001010000E6
:1034E00000000100000000010000010100000101D6
:1034F00000000001010101000000000000000000C8
:10350000000000007D1F0008000000000000000017
:10351000951F000800000000000000007121000855
:103520004435000800000020280C00002801000895
:10353000D4350008280C0020D83E00008401000883
:1035400091F7FFFF1184A24A0400092F010203042E
:10355000060708090C130101010C091119190609C4
:10356000500159607969C908F911D9311907093031
:103570006EB9E499170935BD01FFC10A2A0101019D
:10358000FF01110A25010101FF01110A20010101BA
:10359000FF01110A1B010101FF01110A16010101BE
:1035A000FF01110A11010101FF0111CA010101FF0F
:1035B00001115A0101A90C09280109336B09415570
:1035C00009354109212DE91BA920226442AA0320C3
:0435D000049600005D
:04000005080000ED02
:00000001FF
